{
  "_format": "hh-sol-artifact-1",
  "contractName": "Authenticity",
  "sourceName": "contracts/Authenticity.sol",
  "abi": [
    {
      "anonymous": false,
      "inputs": [
        {
          "indexed": true,
          "internalType": "uint256",
          "name": "productId",
          "type": "uint256"
        },
        {
          "indexed": false,
          "internalType": "uint256",
          "name": "evidenceId",
          "type": "uint256"
        },
        {
          "indexed": false,
          "internalType": "string",
          "name": "iotTagId",
          "type": "string"
        },
        {
          "indexed": false,
          "internalType": "bytes32",
          "name": "digitalFingerprint",
          "type": "bytes32"
        },
        {
          "indexed": false,
          "internalType": "string",
          "name": "location",
          "type": "string"
        },
        {
          "indexed": false,
          "internalType": "uint256",
          "name": "timestamp",
          "type": "uint256"
        },
        {
          "indexed": false,
          "internalType": "string",
          "name": "metadata",
          "type": "string"
        }
      ],
      "name": "AuthenticityLogged",
      "type": "event"
    },
    {
      "inputs": [
        {
          "internalType": "uint256",
          "name": "",
          "type": "uint256"
        },
        {
          "internalType": "uint256",
          "name": "",
          "type": "uint256"
        }
      ],
      "name": "authenticityRecords",
      "outputs": [
        {
          "internalType": "uint256",
          "name": "evidenceId",
          "type": "uint256"
        },
        {
          "internalType": "uint256",
          "name": "productId",
          "type": "uint256"
        },
        {
          "internalType": "string",
          "name": "iotTagId",
          "type": "string"
        },
        {
          "internalType": "bytes32",
          "name": "digitalFingerprint",
          "type": "bytes32"
        },
        {
          "internalType": "string",
          "name": "location",
          "type": "string"
        },
        {
          "internalType": "uint256",
          "name": "timestamp",
          "type": "uint256"
        },
        {
          "internalType": "string",
          "name": "metadata",
          "type": "string"
        }
      ],
      "stateMutability": "view",
      "type": "function"
    },
    {
      "inputs": [
        {
          "internalType": "uint256",
          "name": "productId",
          "type": "uint256"
        },
        {
          "internalType": "string",
          "name": "iotTagId",
          "type": "string"
        },
        {
          "internalType": "bytes32",
          "name": "digitalFingerprint",
          "type": "bytes32"
        },
        {
          "internalType": "string",
          "name": "location",
          "type": "string"
        },
        {
          "internalType": "uint256",
          "name": "timestamp",
          "type": "uint256"
        },
        {
          "internalType": "string",
          "name": "metadata",
          "type": "string"
        }
      ],
      "name": "logAuthenticityData",
      "outputs": [],
      "stateMutability": "nonpayable",
      "type": "function"
    }
  ],
  "bytecode": "0x608060405234801561001057600080fd5b50610b55806100206000396000f3fe608060405234801561001057600080fd5b50600436106100365760003560e01c806327678cf11461003b578063c24da1a214610071575b600080fd5b6100556004803603810190610050919061040d565b61008d565b6040516100689796959493929190610505565b60405180910390f35b61008b600480360381019061008691906106ea565b610284565b005b600060205281600052604060002081815481106100a957600080fd5b9060005260206000209060070201600091509150508060000154908060010154908060020180546100d9906107fa565b80601f0160208091040260200160405190810160405280929190818152602001828054610105906107fa565b80156101525780601f1061012757610100808354040283529160200191610152565b820191906000526020600020905b81548152906001019060200180831161013557829003601f168201915b50505050509080600301549080600401805461016d906107fa565b80601f0160208091040260200160405190810160405280929190818152602001828054610199906107fa565b80156101e65780601f106101bb576101008083540402835291602001916101e6565b820191906000526020600020905b8154815290600101906020018083116101c957829003601f168201915b505050505090806005015490806006018054610201906107fa565b80601f016020809104026020016040519081016040528092919081815260200182805461022d906107fa565b801561027a5780601f1061024f5761010080835404028352916020019161027a565b820191906000526020600020905b81548152906001019060200180831161025d57829003601f168201915b5050505050905087565b60008060008881526020019081526020016000208054905090506000808881526020019081526020016000206040518060e001604052808381526020018981526020018881526020018781526020018681526020018581526020018481525090806001815401808255809150506001900390600052602060002090600702016000909190919091506000820151816000015560208201518160010155604082015181600201908161033591906109d7565b5060608201518160030155608082015181600401908161035591906109d7565b5060a0820151816005015560c082015181600601908161037591906109d7565b505050867fbdf29da67d7ad7a567ad05872573fd508cc73afd28874b932938e5159e7533318288888888886040516103b296959493929190610aa9565b60405180910390a250505050505050565b6000604051905090565b600080fd5b600080fd5b6000819050919050565b6103ea816103d7565b81146103f557600080fd5b50565b600081359050610407816103e1565b92915050565b60008060408385031215610424576104236103cd565b5b6000610432858286016103f8565b9250506020610443858286016103f8565b9150509250929050565b610456816103d7565b82525050565b600081519050919050565b600082825260208201905092915050565b60005b8381101561049657808201518184015260208101905061047b565b60008484015250505050565b6000601f19601f8301169050919050565b60006104be8261045c565b6104c88185610467565b93506104d8818560208601610478565b6104e1816104a2565b840191505092915050565b6000819050919050565b6104ff816104ec565b82525050565b600060e08201905061051a600083018a61044d565b610527602083018961044d565b818103604083015261053981886104b3565b905061054860608301876104f6565b818103608083015261055a81866104b3565b905061056960a083018561044d565b81810360c083015261057b81846104b3565b905098975050505050505050565b600080fd5b600080fd5b7f4e487b7100000000000000000000000000000000000000000000000000000000600052604160045260246000fd5b6105cb826104a2565b810181811067ffffffffffffffff821117156105ea576105e9610593565b5b80604052505050565b60006105fd6103c3565b905061060982826105c2565b919050565b600067ffffffffffffffff82111561062957610628610593565b5b610632826104a2565b9050602081019050919050565b82818337600083830152505050565b600061066161065c8461060e565b6105f3565b90508281526020810184848401111561067d5761067c61058e565b5b61068884828561063f565b509392505050565b600082601f8301126106a5576106a4610589565b5b81356106b584826020860161064e565b91505092915050565b6106c7816104ec565b81146106d257600080fd5b50565b6000813590506106e4816106be565b92915050565b60008060008060008060c08789031215610707576107066103cd565b5b600061071589828a016103f8565b965050602087013567ffffffffffffffff811115610736576107356103d2565b5b61074289828a01610690565b955050604061075389828a016106d5565b945050606087013567ffffffffffffffff811115610774576107736103d2565b5b61078089828a01610690565b935050608061079189828a016103f8565b92505060a087013567ffffffffffffffff8111156107b2576107b16103d2565b5b6107be89828a01610690565b9150509295509295509295565b7f4e487b7100000000000000000000000000000000000000000000000000000000600052602260045260246000fd5b6000600282049050600182168061081257607f821691505b602082108103610825576108246107cb565b5b50919050565b60008190508160005260206000209050919050565b60006020601f8301049050919050565b600082821b905092915050565b60006008830261088d7fffffffffffffffffffffffffffffffffffffffffffffffffffffffffffffffff82610850565b6108978683610850565b95508019841693508086168417925050509392505050565b6000819050919050565b60006108d46108cf6108ca846103d7565b6108af565b6103d7565b9050919050565b6000819050919050565b6108ee836108b9565b6109026108fa826108db565b84845461085d565b825550505050565b600090565b61091761090a565b6109228184846108e5565b505050565b5b818110156109465761093b60008261090f565b600181019050610928565b5050565b601f82111561098b5761095c8161082b565b61096584610840565b81016020851015610974578190505b61098861098085610840565b830182610927565b50505b505050565b600082821c905092915050565b60006109ae60001984600802610990565b1980831691505092915050565b60006109c7838361099d565b9150826002028217905092915050565b6109e08261045c565b67ffffffffffffffff8111156109f9576109f8610593565b5b610a0382546107fa565b610a0e82828561094a565b600060209050601f831160018114610a415760008415610a2f578287015190505b610a3985826109bb565b865550610aa1565b601f198416610a4f8661082b565b60005b82811015610a7757848901518255600182019150602085019450602081019050610a52565b86831015610a945784890151610a90601f89168261099d565b8355505b6001600288020188555050505b505050505050565b600060c082019050610abe600083018961044d565b8181036020830152610ad081886104b3565b9050610adf60408301876104f6565b8181036060830152610af181866104b3565b9050610b00608083018561044d565b81810360a0830152610b1281846104b3565b905097965050505050505056fea264697066735822122085a18014fa916978ffd3f8b53a8376118be5da29afa3b3b647af702781e9c9e764736f6c63430008110033",
  "linkReferences": {},
  "deployedLinkReferences": {}
}