{
  "_format": "hh-sol-artifact-1",
  "contractName": "Retailer",
  "sourceName": "contracts/Retailer.sol",
  "abi": [
    {
      "inputs": [
        {
          "internalType": "address",
          "name": "newRetailer",
          "type": "address"
        }
      ],
      "name": "addRetailer",
      "outputs": [],
      "stateMutability": "nonpayable",
      "type": "function"
    },
    {
      "inputs": [],
      "name": "isRetailer",
      "outputs": [
        {
          "internalType": "bool",
          "name": "",
          "type": "bool"
        }
      ],
      "stateMutability": "view",
      "type": "function"
    }
  ],
  "bytecode": "0x608060405234801561001057600080fd5b50610351806100206000396000f3fe608060405234801561001057600080fd5b50600436106100365760003560e01c8063477ba6451461003b5780638ec4f50514610059575b600080fd5b610043610075565b60405161005091906101cd565b60405180910390f35b610073600480360381019061006e919061024b565b610090565b005b600061008b3360006100fb90919063ffffffff16565b905090565b6100a48160006100fb90919063ffffffff16565b156100e4576040517f08c379a00000000000000000000000000000000000000000000000000000000081526004016100db906102fb565b60405180910390fd5b6100f881600061015490919063ffffffff16565b50565b60008260000160008373ffffffffffffffffffffffffffffffffffffffff1673ffffffffffffffffffffffffffffffffffffffff16815260200190815260200160002060009054906101000a900460ff16905092915050565b60018260000160008373ffffffffffffffffffffffffffffffffffffffff1673ffffffffffffffffffffffffffffffffffffffff16815260200190815260200160002060006101000a81548160ff0219169083151502179055505050565b60008115159050919050565b6101c7816101b2565b82525050565b60006020820190506101e260008301846101be565b92915050565b600080fd5b600073ffffffffffffffffffffffffffffffffffffffff82169050919050565b6000610218826101ed565b9050919050565b6102288161020d565b811461023357600080fd5b50565b6000813590506102458161021f565b92915050565b600060208284031215610261576102606101e8565b5b600061026f84828501610236565b91505092915050565b600082825260208201905092915050565b7f52657461696c657220776974682074686973206164647265737320616c72656160008201527f6479206578697374732100000000000000000000000000000000000000000000602082015250565b60006102e5602a83610278565b91506102f082610289565b604082019050919050565b60006020820190508181036000830152610314816102d8565b905091905056fea2646970667358221220aad1c192aa024e1966f12d7d634508f17901557302ce8adb5d6a333db42c54e964736f6c63430008110033",
  "linkReferences": {},
  "deployedLinkReferences": {}
}