{
  "_format": "hh-sol-artifact-1",
  "contractName": "SupplyChainLifecycle",
  "sourceName": "contracts/SupplyChainLifecycle.sol",
  "abi": [
    {
      "inputs": [],
      "stateMutability": "nonpayable",
      "type": "constructor"
    },
    {
      "anonymous": false,
      "inputs": [
        {
          "indexed": false,
          "internalType": "uint256",
          "name": "productID",
          "type": "uint256"
        }
      ],
      "name": "Paid",
      "type": "event"
    },
    {
      "anonymous": false,
      "inputs": [
        {
          "indexed": false,
          "internalType": "uint256",
          "name": "productID",
          "type": "uint256"
        }
      ],
      "name": "PickedUp",
      "type": "event"
    },
    {
      "anonymous": false,
      "inputs": [
        {
          "indexed": false,
          "internalType": "uint256",
          "name": "productID",
          "type": "uint256"
        }
      ],
      "name": "Produced",
      "type": "event"
    },
    {
      "anonymous": false,
      "inputs": [
        {
          "indexed": false,
          "internalType": "uint256",
          "name": "productID",
          "type": "uint256"
        }
      ],
      "name": "ReadyForPickup",
      "type": "event"
    },
    {
      "anonymous": false,
      "inputs": [
        {
          "indexed": false,
          "internalType": "uint256",
          "name": "productID",
          "type": "uint256"
        }
      ],
      "name": "ReadyForSale",
      "type": "event"
    },
    {
      "anonymous": false,
      "inputs": [
        {
          "indexed": false,
          "internalType": "uint256",
          "name": "productID",
          "type": "uint256"
        }
      ],
      "name": "ShipmentReceived",
      "type": "event"
    },
    {
      "anonymous": false,
      "inputs": [
        {
          "indexed": false,
          "internalType": "uint256",
          "name": "productID",
          "type": "uint256"
        }
      ],
      "name": "ShipmentReleased",
      "type": "event"
    },
    {
      "anonymous": false,
      "inputs": [
        {
          "indexed": false,
          "internalType": "uint256",
          "name": "productID",
          "type": "uint256"
        }
      ],
      "name": "Sold",
      "type": "event"
    },
    {
      "inputs": [
        {
          "internalType": "address",
          "name": "newDistributor",
          "type": "address"
        }
      ],
      "name": "addDistributor",
      "outputs": [],
      "stateMutability": "nonpayable",
      "type": "function"
    },
    {
      "inputs": [
        {
          "internalType": "address",
          "name": "newProducer",
          "type": "address"
        }
      ],
      "name": "addProducer",
      "outputs": [],
      "stateMutability": "nonpayable",
      "type": "function"
    },
    {
      "inputs": [
        {
          "internalType": "address",
          "name": "newRetailer",
          "type": "address"
        }
      ],
      "name": "addRetailer",
      "outputs": [],
      "stateMutability": "nonpayable",
      "type": "function"
    },
    {
      "inputs": [
        {
          "internalType": "uint256",
          "name": "prodId",
          "type": "uint256"
        }
      ],
      "name": "buyProduct",
      "outputs": [],
      "stateMutability": "payable",
      "type": "function"
    },
    {
      "inputs": [],
      "name": "getAllProductDetails",
      "outputs": [
        {
          "components": [
            {
              "internalType": "enum SupplyChainLifecycle.Status",
              "name": "productStatus",
              "type": "uint8"
            },
            {
              "internalType": "address",
              "name": "currentStatusUser",
              "type": "address"
            },
            {
              "internalType": "uint256",
              "name": "productId",
              "type": "uint256"
            },
            {
              "internalType": "string",
              "name": "productName",
              "type": "string"
            },
            {
              "internalType": "string",
              "name": "productDesc",
              "type": "string"
            },
            {
              "internalType": "uint256",
              "name": "productPrice",
              "type": "uint256"
            },
            {
              "internalType": "uint256",
              "name": "productQuantity",
              "type": "uint256"
            },
            {
              "internalType": "address",
              "name": "producerAddress",
              "type": "address"
            },
            {
              "internalType": "address",
              "name": "distributorAddress",
              "type": "address"
            },
            {
              "internalType": "address",
              "name": "retailerAddresses",
              "type": "address"
            },
            {
              "internalType": "address",
              "name": "consumerAddress",
              "type": "address"
            }
          ],
          "internalType": "struct SupplyChainLifecycle.Product[]",
          "name": "",
          "type": "tuple[]"
        }
      ],
      "stateMutability": "view",
      "type": "function"
    },
    {
      "inputs": [
        {
          "internalType": "uint256",
          "name": "prodId",
          "type": "uint256"
        }
      ],
      "name": "getProductDetails",
      "outputs": [
        {
          "components": [
            {
              "internalType": "enum SupplyChainLifecycle.Status",
              "name": "productStatus",
              "type": "uint8"
            },
            {
              "internalType": "address",
              "name": "currentStatusUser",
              "type": "address"
            },
            {
              "internalType": "uint256",
              "name": "productId",
              "type": "uint256"
            },
            {
              "internalType": "string",
              "name": "productName",
              "type": "string"
            },
            {
              "internalType": "string",
              "name": "productDesc",
              "type": "string"
            },
            {
              "internalType": "uint256",
              "name": "productPrice",
              "type": "uint256"
            },
            {
              "internalType": "uint256",
              "name": "productQuantity",
              "type": "uint256"
            },
            {
              "internalType": "address",
              "name": "producerAddress",
              "type": "address"
            },
            {
              "internalType": "address",
              "name": "distributorAddress",
              "type": "address"
            },
            {
              "internalType": "address",
              "name": "retailerAddresses",
              "type": "address"
            },
            {
              "internalType": "address",
              "name": "consumerAddress",
              "type": "address"
            }
          ],
          "internalType": "struct SupplyChainLifecycle.Product",
          "name": "",
          "type": "tuple"
        }
      ],
      "stateMutability": "view",
      "type": "function"
    },
    {
      "inputs": [],
      "name": "isDistributor",
      "outputs": [
        {
          "internalType": "bool",
          "name": "",
          "type": "bool"
        }
      ],
      "stateMutability": "view",
      "type": "function"
    },
    {
      "inputs": [],
      "name": "isProducer",
      "outputs": [
        {
          "internalType": "bool",
          "name": "",
          "type": "bool"
        }
      ],
      "stateMutability": "view",
      "type": "function"
    },
    {
      "inputs": [],
      "name": "isRetailer",
      "outputs": [
        {
          "internalType": "bool",
          "name": "",
          "type": "bool"
        }
      ],
      "stateMutability": "view",
      "type": "function"
    },
    {
      "inputs": [
        {
          "internalType": "uint256",
          "name": "prodId",
          "type": "uint256"
        }
      ],
      "name": "markProductReadyForPickup",
      "outputs": [],
      "stateMutability": "nonpayable",
      "type": "function"
    },
    {
      "inputs": [
        {
          "internalType": "uint256",
          "name": "prodId",
          "type": "uint256"
        }
      ],
      "name": "markProductReadyForSale",
      "outputs": [],
      "stateMutability": "nonpayable",
      "type": "function"
    },
    {
      "inputs": [
        {
          "internalType": "uint256",
          "name": "prodId",
          "type": "uint256"
        }
      ],
      "name": "pickUpProduct",
      "outputs": [],
      "stateMutability": "nonpayable",
      "type": "function"
    },
    {
      "inputs": [
        {
          "internalType": "string",
          "name": "prodName",
          "type": "string"
        },
        {
          "internalType": "string",
          "name": "prodDesc",
          "type": "string"
        },
        {
          "internalType": "uint256",
          "name": "prodPrice",
          "type": "uint256"
        },
        {
          "internalType": "uint256",
          "name": "prodQty",
          "type": "uint256"
        },
        {
          "internalType": "address",
          "name": "producerAdd",
          "type": "address"
        }
      ],
      "name": "produceProduct",
      "outputs": [],
      "stateMutability": "nonpayable",
      "type": "function"
    },
    {
      "inputs": [
        {
          "internalType": "uint256",
          "name": "",
          "type": "uint256"
        }
      ],
      "name": "products",
      "outputs": [
        {
          "internalType": "enum SupplyChainLifecycle.Status",
          "name": "productStatus",
          "type": "uint8"
        },
        {
          "internalType": "address",
          "name": "currentStatusUser",
          "type": "address"
        },
        {
          "internalType": "uint256",
          "name": "productId",
          "type": "uint256"
        },
        {
          "internalType": "string",
          "name": "productName",
          "type": "string"
        },
        {
          "internalType": "string",
          "name": "productDesc",
          "type": "string"
        },
        {
          "internalType": "uint256",
          "name": "productPrice",
          "type": "uint256"
        },
        {
          "internalType": "uint256",
          "name": "productQuantity",
          "type": "uint256"
        },
        {
          "internalType": "address",
          "name": "producerAddress",
          "type": "address"
        },
        {
          "internalType": "address",
          "name": "distributorAddress",
          "type": "address"
        },
        {
          "internalType": "address",
          "name": "retailerAddresses",
          "type": "address"
        },
        {
          "internalType": "address",
          "name": "consumerAddress",
          "type": "address"
        }
      ],
      "stateMutability": "view",
      "type": "function"
    },
    {
      "inputs": [
        {
          "internalType": "uint256",
          "name": "prodId",
          "type": "uint256"
        }
      ],
      "name": "receiveProductShipment",
      "outputs": [],
      "stateMutability": "nonpayable",
      "type": "function"
    },
    {
      "inputs": [
        {
          "internalType": "uint256",
          "name": "prodId",
          "type": "uint256"
        }
      ],
      "name": "releaseProductShipment",
      "outputs": [],
      "stateMutability": "nonpayable",
      "type": "function"
    },
    {
      "inputs": [
        {
          "internalType": "uint256",
          "name": "prodId",
          "type": "uint256"
        }
      ],
      "name": "sellProductToConsumer",
      "outputs": [],
      "stateMutability": "payable",
      "type": "function"
    }
  ],
  "bytecode": "0x608060405234801561001057600080fd5b506000600381905550612c88806100286000396000f3fe6080604052600436106100fe5760003560e01c80637acc0b2011610095578063a9a59f3211610064578063a9a59f321461030f578063b72c946e14610338578063d77bc92014610361578063ddf801661461038a578063ee43ec40146103b3576100fe565b80637acc0b20146102675780638642269e146102ae5780638ec4f505146102ca578063a395b026146102f3576100fe565b80635aed9c22116100d15780635aed9c22146101ab5780635f515a3a146101d65780636813b53b146102015780637250e2241461023e576100fe565b80630997a514146101035780632f2a68d61461012e57806344253a2814610157578063477ba64514610180575b600080fd5b34801561010f57600080fd5b506101186103dc565b6040516101259190611cef565b60405180910390f35b34801561013a57600080fd5b5061015560048036038101906101509190611d54565b6103f7565b005b34801561016357600080fd5b5061017e60048036038101906101799190611f25565b61052a565b005b34801561018c57600080fd5b506101956108aa565b6040516101a29190611cef565b60405180910390f35b3480156101b757600080fd5b506101c06108c5565b6040516101cd91906122a4565b60405180910390f35b3480156101e257600080fd5b506101eb610c50565b6040516101f89190611cef565b60405180910390f35b34801561020d57600080fd5b5061022860048036038101906102239190611d54565b610c6b565b60405161023591906123bc565b60405180910390f35b34801561024a57600080fd5b50610265600480360381019061026091906123de565b610fd3565b005b34801561027357600080fd5b5061028e60048036038101906102899190611d54565b61103e565b6040516102a59b9a99989796959493929190612482565b60405180910390f35b6102c860048036038101906102c39190611d54565b611265565b005b3480156102d657600080fd5b506102f160048036038101906102ec91906123de565b6113a7565b005b61030d60048036038101906103089190611d54565b611412565b005b34801561031b57600080fd5b5061033660048036038101906103319190611d54565b611545565b005b34801561034457600080fd5b5061035f600480360381019061035a9190611d54565b6116dc565b005b34801561036d57600080fd5b5061038860048036038101906103839190611d54565b61180f565b005b34801561039657600080fd5b506103b160048036038101906103ac91906123de565b6119a5565b005b3480156103bf57600080fd5b506103da60048036038101906103d59190611d54565b611a10565b005b60006103f2336002611b4390919063ffffffff16565b905090565b6103ff610c50565b61043e576040517f08c379a000000000000000000000000000000000000000000000000000000000815260040161043590612587565b60405180910390fd5b600160048281548110610454576104536125a7565b5b90600052602060002090600a020160000160006101000a81548160ff0219169083600781111561048757610486612004565b5b021790555033600482815481106104a1576104a06125a7565b5b90600052602060002090600a020160000160016101000a81548173ffffffffffffffffffffffffffffffffffffffff021916908373ffffffffffffffffffffffffffffffffffffffff1602179055507ffa5cddf457a1228b4407a93573223bbd9eb1bd17b01ea96d5c3ef190354a73a68160405161051f91906125d6565b60405180910390a150565b610532610c50565b610571576040517f08c379a000000000000000000000000000000000000000000000000000000000815260040161056890612587565b60405180910390fd5b60046040518061016001604052806000600781111561059357610592612004565b5b81526020018373ffffffffffffffffffffffffffffffffffffffff16815260200160035481526020018781526020018681526020018581526020018481526020018373ffffffffffffffffffffffffffffffffffffffff168152602001600073ffffffffffffffffffffffffffffffffffffffff168152602001600073ffffffffffffffffffffffffffffffffffffffff168152602001600073ffffffffffffffffffffffffffffffffffffffff1681525090806001815401808255809150506001900390600052602060002090600a020160009091909190915060008201518160000160006101000a81548160ff0219169083600781111561069957610698612004565b5b021790555060208201518160000160016101000a81548173ffffffffffffffffffffffffffffffffffffffff021916908373ffffffffffffffffffffffffffffffffffffffff16021790555060408201518160010155606082015181600201908161070491906127fd565b50608082015181600301908161071a91906127fd565b5060a0820151816004015560c0820151816005015560e08201518160060160006101000a81548173ffffffffffffffffffffffffffffffffffffffff021916908373ffffffffffffffffffffffffffffffffffffffff1602179055506101008201518160070160006101000a81548173ffffffffffffffffffffffffffffffffffffffff021916908373ffffffffffffffffffffffffffffffffffffffff1602179055506101208201518160080160006101000a81548173ffffffffffffffffffffffffffffffffffffffff021916908373ffffffffffffffffffffffffffffffffffffffff1602179055506101408201518160090160006101000a81548173ffffffffffffffffffffffffffffffffffffffff021916908373ffffffffffffffffffffffffffffffffffffffff160217905550505060016003600082825461086391906128fe565b925050819055507f9d1715437821cd9a90cba5d1a68995c308d9ad9afc754ed9a1cff429760796e660035460405161089b91906125d6565b60405180910390a15050505050565b60006108c0336001611b4390919063ffffffff16565b905090565b60606004805480602002602001604051908101604052809291908181526020016000905b82821015610c4757838290600052602060002090600a0201604051806101600160405290816000820160009054906101000a900460ff16600781111561093257610931612004565b5b600781111561094457610943612004565b5b81526020016000820160019054906101000a900473ffffffffffffffffffffffffffffffffffffffff1673ffffffffffffffffffffffffffffffffffffffff1673ffffffffffffffffffffffffffffffffffffffff168152602001600182015481526020016002820180546109b890612620565b80601f01602080910402602001604051908101604052809291908181526020018280546109e490612620565b8015610a315780601f10610a0657610100808354040283529160200191610a31565b820191906000526020600020905b815481529060010190602001808311610a1457829003601f168201915b50505050508152602001600382018054610a4a90612620565b80601f0160208091040260200160405190810160405280929190818152602001828054610a7690612620565b8015610ac35780601f10610a9857610100808354040283529160200191610ac3565b820191906000526020600020905b815481529060010190602001808311610aa657829003601f168201915b5050505050815260200160048201548152602001600582015481526020016006820160009054906101000a900473ffffffffffffffffffffffffffffffffffffffff1673ffffffffffffffffffffffffffffffffffffffff1673ffffffffffffffffffffffffffffffffffffffff1681526020016007820160009054906101000a900473ffffffffffffffffffffffffffffffffffffffff1673ffffffffffffffffffffffffffffffffffffffff1673ffffffffffffffffffffffffffffffffffffffff1681526020016008820160009054906101000a900473ffffffffffffffffffffffffffffffffffffffff1673ffffffffffffffffffffffffffffffffffffffff1673ffffffffffffffffffffffffffffffffffffffff1681526020016009820160009054906101000a900473ffffffffffffffffffffffffffffffffffffffff1673ffffffffffffffffffffffffffffffffffffffff1673ffffffffffffffffffffffffffffffffffffffff1681525050815260200190600101906108e9565b50505050905090565b6000610c66336000611b4390919063ffffffff16565b905090565b610c73611bfa565b60048281548110610c8757610c866125a7565b5b90600052602060002090600a0201604051806101600160405290816000820160009054906101000a900460ff166007811115610cc657610cc5612004565b5b6007811115610cd857610cd7612004565b5b81526020016000820160019054906101000a900473ffffffffffffffffffffffffffffffffffffffff1673ffffffffffffffffffffffffffffffffffffffff1673ffffffffffffffffffffffffffffffffffffffff16815260200160018201548152602001600282018054610d4c90612620565b80601f0160208091040260200160405190810160405280929190818152602001828054610d7890612620565b8015610dc55780601f10610d9a57610100808354040283529160200191610dc5565b820191906000526020600020905b815481529060010190602001808311610da857829003601f168201915b50505050508152602001600382018054610dde90612620565b80601f0160208091040260200160405190810160405280929190818152602001828054610e0a90612620565b8015610e575780601f10610e2c57610100808354040283529160200191610e57565b820191906000526020600020905b815481529060010190602001808311610e3a57829003601f168201915b5050505050815260200160048201548152602001600582015481526020016006820160009054906101000a900473ffffffffffffffffffffffffffffffffffffffff1673ffffffffffffffffffffffffffffffffffffffff1673ffffffffffffffffffffffffffffffffffffffff1681526020016007820160009054906101000a900473ffffffffffffffffffffffffffffffffffffffff1673ffffffffffffffffffffffffffffffffffffffff1673ffffffffffffffffffffffffffffffffffffffff1681526020016008820160009054906101000a900473ffffffffffffffffffffffffffffffffffffffff1673ffffffffffffffffffffffffffffffffffffffff1673ffffffffffffffffffffffffffffffffffffffff1681526020016009820160009054906101000a900473ffffffffffffffffffffffffffffffffffffffff1673ffffffffffffffffffffffffffffffffffffffff1673ffffffffffffffffffffffffffffffffffffffff16815250509050919050565b610fe7816002611b4390919063ffffffff16565b15611027576040517f08c379a000000000000000000000000000000000000000000000000000000000815260040161101e906129a4565b60405180910390fd5b61103b816002611b9c90919063ffffffff16565b50565b6004818154811061104e57600080fd5b90600052602060002090600a02016000915090508060000160009054906101000a900460ff16908060000160019054906101000a900473ffffffffffffffffffffffffffffffffffffffff16908060010154908060020180546110b090612620565b80601f01602080910402602001604051908101604052809291908181526020018280546110dc90612620565b80156111295780601f106110fe57610100808354040283529160200191611129565b820191906000526020600020905b81548152906001019060200180831161110c57829003601f168201915b50505050509080600301805461113e90612620565b80601f016020809104026020016040519081016040528092919081815260200182805461116a90612620565b80156111b75780601f1061118c576101008083540402835291602001916111b7565b820191906000526020600020905b81548152906001019060200180831161119a57829003601f168201915b5050505050908060040154908060050154908060060160009054906101000a900473ffffffffffffffffffffffffffffffffffffffff16908060070160009054906101000a900473ffffffffffffffffffffffffffffffffffffffff16908060080160009054906101000a900473ffffffffffffffffffffffffffffffffffffffff16908060090160009054906101000a900473ffffffffffffffffffffffffffffffffffffffff1690508b565b61126d6108aa565b8061127c575061127b6103dc565b5b6112bb576040517f08c379a00000000000000000000000000000000000000000000000000000000081526004016112b290612a36565b60405180910390fd5b6006600482815481106112d1576112d06125a7565b5b90600052602060002090600a020160000160006101000a81548160ff0219169083600781111561130457611303612004565b5b0217905550336004828154811061131e5761131d6125a7565b5b90600052602060002090600a020160000160016101000a81548173ffffffffffffffffffffffffffffffffffffffff021916908373ffffffffffffffffffffffffffffffffffffffff1602179055507f581d416ae9dff30c9305c2b35cb09ed5991897ab97804db29ccf92678e9531608160405161139c91906125d6565b60405180910390a150565b6113bb816001611b4390919063ffffffff16565b156113fb576040517f08c379a00000000000000000000000000000000000000000000000000000000081526004016113f290612ac8565b60405180910390fd5b61140f816001611b9c90919063ffffffff16565b50565b61141a6108aa565b611459576040517f08c379a000000000000000000000000000000000000000000000000000000000815260040161145090612b34565b60405180910390fd5b60076004828154811061146f5761146e6125a7565b5b90600052602060002090600a020160000160006101000a81548160ff021916908360078111156114a2576114a1612004565b5b021790555033600482815481106114bc576114bb6125a7565b5b90600052602060002090600a020160000160016101000a81548173ffffffffffffffffffffffffffffffffffffffff021916908373ffffffffffffffffffffffffffffffffffffffff1602179055507f92f64ca637d023f354075a4be751b169c1a8a9ccb6d33cdd0cb35205439957278160405161153a91906125d6565b60405180910390a150565b61154d6103dc565b61158c576040517f08c379a000000000000000000000000000000000000000000000000000000000815260040161158390612ba0565b60405180910390fd5b6002600482815481106115a2576115a16125a7565b5b90600052602060002090600a020160000160006101000a81548160ff021916908360078111156115d5576115d4612004565b5b021790555033600482815481106115ef576115ee6125a7565b5b90600052602060002090600a020160000160016101000a81548173ffffffffffffffffffffffffffffffffffffffff021916908373ffffffffffffffffffffffffffffffffffffffff1602179055503360048281548110611653576116526125a7565b5b90600052602060002090600a020160070160006101000a81548173ffffffffffffffffffffffffffffffffffffffff021916908373ffffffffffffffffffffffffffffffffffffffff1602179055507f083ec4064b35087af011df34f3d207f4f7f619945bf47aac7151dc1bb26cbcec816040516116d191906125d6565b60405180910390a150565b6116e46103dc565b611723576040517f08c379a000000000000000000000000000000000000000000000000000000000815260040161171a90612ba0565b60405180910390fd5b600360048281548110611739576117386125a7565b5b90600052602060002090600a020160000160006101000a81548160ff0219169083600781111561176c5761176b612004565b5b02179055503360048281548110611786576117856125a7565b5b90600052602060002090600a020160000160016101000a81548173ffffffffffffffffffffffffffffffffffffffff021916908373ffffffffffffffffffffffffffffffffffffffff1602179055507f4f99376b0086484778324ace67e411e492882179dfdae93d3d8ea2b06927959e8160405161180491906125d6565b60405180910390a150565b6118176108aa565b611856576040517f08c379a000000000000000000000000000000000000000000000000000000000815260040161184d90612b34565b60405180910390fd5b600480828154811061186b5761186a6125a7565b5b90600052602060002090600a020160000160006101000a81548160ff0219169083600781111561189e5761189d612004565b5b021790555033600482815481106118b8576118b76125a7565b5b90600052602060002090600a020160000160016101000a81548173ffffffffffffffffffffffffffffffffffffffff021916908373ffffffffffffffffffffffffffffffffffffffff160217905550336004828154811061191c5761191b6125a7565b5b90600052602060002090600a020160080160006101000a81548173ffffffffffffffffffffffffffffffffffffffff021916908373ffffffffffffffffffffffffffffffffffffffff1602179055507f55c3a0d97ff0acf6fa17a844804c6f84d628e88c572c81125dbc048c0f64ec3b8160405161199a91906125d6565b60405180910390a150565b6119b9816000611b4390919063ffffffff16565b156119f9576040517f08c379a00000000000000000000000000000000000000000000000000000000081526004016119f090612c32565b60405180910390fd5b611a0d816000611b9c90919063ffffffff16565b50565b611a186108aa565b611a57576040517f08c379a0000000000000000000000000000000000000000000000000000000008152600401611a4e90612b34565b60405180910390fd5b600560048281548110611a6d57611a6c6125a7565b5b90600052602060002090600a020160000160006101000a81548160ff02191690836007811115611aa057611a9f612004565b5b02179055503360048281548110611aba57611ab96125a7565b5b90600052602060002090600a020160000160016101000a81548173ffffffffffffffffffffffffffffffffffffffff021916908373ffffffffffffffffffffffffffffffffffffffff1602179055507f3a554daf1050288bc56a3cf986e9e6f852ea8b48812472d47d16415cf58d6e1c81604051611b3891906125d6565b60405180910390a150565b60008260000160008373ffffffffffffffffffffffffffffffffffffffff1673ffffffffffffffffffffffffffffffffffffffff16815260200190815260200160002060009054906101000a900460ff16905092915050565b60018260000160008373ffffffffffffffffffffffffffffffffffffffff1673ffffffffffffffffffffffffffffffffffffffff16815260200190815260200160002060006101000a81548160ff0219169083151502179055505050565b60405180610160016040528060006007811115611c1a57611c19612004565b5b8152602001600073ffffffffffffffffffffffffffffffffffffffff1681526020016000815260200160608152602001606081526020016000815260200160008152602001600073ffffffffffffffffffffffffffffffffffffffff168152602001600073ffffffffffffffffffffffffffffffffffffffff168152602001600073ffffffffffffffffffffffffffffffffffffffff168152602001600073ffffffffffffffffffffffffffffffffffffffff1681525090565b60008115159050919050565b611ce981611cd4565b82525050565b6000602082019050611d046000830184611ce0565b92915050565b6000604051905090565b600080fd5b600080fd5b6000819050919050565b611d3181611d1e565b8114611d3c57600080fd5b50565b600081359050611d4e81611d28565b92915050565b600060208284031215611d6a57611d69611d14565b5b6000611d7884828501611d3f565b91505092915050565b600080fd5b600080fd5b6000601f19601f8301169050919050565b7f4e487b7100000000000000000000000000000000000000000000000000000000600052604160045260246000fd5b611dd482611d8b565b810181811067ffffffffffffffff82111715611df357611df2611d9c565b5b80604052505050565b6000611e06611d0a565b9050611e128282611dcb565b919050565b600067ffffffffffffffff821115611e3257611e31611d9c565b5b611e3b82611d8b565b9050602081019050919050565b82818337600083830152505050565b6000611e6a611e6584611e17565b611dfc565b905082815260208101848484011115611e8657611e85611d86565b5b611e91848285611e48565b509392505050565b600082601f830112611eae57611ead611d81565b5b8135611ebe848260208601611e57565b91505092915050565b600073ffffffffffffffffffffffffffffffffffffffff82169050919050565b6000611ef282611ec7565b9050919050565b611f0281611ee7565b8114611f0d57600080fd5b50565b600081359050611f1f81611ef9565b92915050565b600080600080600060a08688031215611f4157611f40611d14565b5b600086013567ffffffffffffffff811115611f5f57611f5e611d19565b5b611f6b88828901611e99565b955050602086013567ffffffffffffffff811115611f8c57611f8b611d19565b5b611f9888828901611e99565b9450506040611fa988828901611d3f565b9350506060611fba88828901611d3f565b9250506080611fcb88828901611f10565b9150509295509295909350565b600081519050919050565b600082825260208201905092915050565b6000819050602082019050919050565b7f4e487b7100000000000000000000000000000000000000000000000000000000600052602160045260246000fd5b6008811061204457612043612004565b5b50565b600081905061205582612033565b919050565b600061206582612047565b9050919050565b6120758161205a565b82525050565b61208481611ee7565b82525050565b61209381611d1e565b82525050565b600081519050919050565b600082825260208201905092915050565b60005b838110156120d35780820151818401526020810190506120b8565b60008484015250505050565b60006120ea82612099565b6120f481856120a4565b93506121048185602086016120b5565b61210d81611d8b565b840191505092915050565b600061016083016000830151612131600086018261206c565b506020830151612144602086018261207b565b506040830151612157604086018261208a565b506060830151848203606086015261216f82826120df565b9150506080830151848203608086015261218982826120df565b91505060a083015161219e60a086018261208a565b5060c08301516121b160c086018261208a565b5060e08301516121c460e086018261207b565b506101008301516121d961010086018261207b565b506101208301516121ee61012086018261207b565b5061014083015161220361014086018261207b565b508091505092915050565b600061221a8383612118565b905092915050565b6000602082019050919050565b600061223a82611fd8565b6122448185611fe3565b93508360208202850161225685611ff4565b8060005b858110156122925784840389528151612273858261220e565b945061227e83612222565b925060208a0199505060018101905061225a565b50829750879550505050505092915050565b600060208201905081810360008301526122be818461222f565b905092915050565b6000610160830160008301516122df600086018261206c565b5060208301516122f2602086018261207b565b506040830151612305604086018261208a565b506060830151848203606086015261231d82826120df565b9150506080830151848203608086015261233782826120df565b91505060a083015161234c60a086018261208a565b5060c083015161235f60c086018261208a565b5060e083015161237260e086018261207b565b5061010083015161238761010086018261207b565b5061012083015161239c61012086018261207b565b506101408301516123b161014086018261207b565b508091505092915050565b600060208201905081810360008301526123d681846122c6565b905092915050565b6000602082840312156123f4576123f3611d14565b5b600061240284828501611f10565b91505092915050565b6124148161205a565b82525050565b61242381611ee7565b82525050565b61243281611d1e565b82525050565b600082825260208201905092915050565b600061245482612099565b61245e8185612438565b935061246e8185602086016120b5565b61247781611d8b565b840191505092915050565b600061016082019050612498600083018e61240b565b6124a5602083018d61241a565b6124b2604083018c612429565b81810360608301526124c4818b612449565b905081810360808301526124d8818a612449565b90506124e760a0830189612429565b6124f460c0830188612429565b61250160e083018761241a565b61250f61010083018661241a565b61251d61012083018561241a565b61252b61014083018461241a565b9c9b505050505050505050505050565b7f4e6f7420612070726f64756365722e0000000000000000000000000000000000600082015250565b6000612571600f83612438565b915061257c8261253b565b602082019050919050565b600060208201905081810360008301526125a081612564565b9050919050565b7f4e487b7100000000000000000000000000000000000000000000000000000000600052603260045260246000fd5b60006020820190506125eb6000830184612429565b92915050565b7f4e487b7100000000000000000000000000000000000000000000000000000000600052602260045260246000fd5b6000600282049050600182168061263857607f821691505b60208210810361264b5761264a6125f1565b5b50919050565b60008190508160005260206000209050919050565b60006020601f8301049050919050565b600082821b905092915050565b6000600883026126b37fffffffffffffffffffffffffffffffffffffffffffffffffffffffffffffffff82612676565b6126bd8683612676565b95508019841693508086168417925050509392505050565b6000819050919050565b60006126fa6126f56126f084611d1e565b6126d5565b611d1e565b9050919050565b6000819050919050565b612714836126df565b61272861272082612701565b848454612683565b825550505050565b600090565b61273d612730565b61274881848461270b565b505050565b5b8181101561276c57612761600082612735565b60018101905061274e565b5050565b601f8211156127b15761278281612651565b61278b84612666565b8101602085101561279a578190505b6127ae6127a685612666565b83018261274d565b50505b505050565b600082821c905092915050565b60006127d4600019846008026127b6565b1980831691505092915050565b60006127ed83836127c3565b9150826002028217905092915050565b61280682612099565b67ffffffffffffffff81111561281f5761281e611d9c565b5b6128298254612620565b612834828285612770565b600060209050601f8311600181146128675760008415612855578287015190505b61285f85826127e1565b8655506128c7565b601f19841661287586612651565b60005b8281101561289d57848901518255600182019150602085019450602081019050612878565b868310156128ba57848901516128b6601f8916826127c3565b8355505b6001600288020188555050505b505050505050565b7f4e487b7100000000000000000000000000000000000000000000000000000000600052601160045260246000fd5b600061290982611d1e565b915061291483611d1e565b925082820190508082111561292c5761292b6128cf565b5b92915050565b7f4469737472696275746f7220776974682074686973206164647265737320616c60008201527f7265616479206578697374732100000000000000000000000000000000000000602082015250565b600061298e602d83612438565b915061299982612932565b604082019050919050565b600060208201905081810360008301526129bd81612981565b9050919050565b7f4e65697468657220612072657461696c6572206e6f722061206469737472696260008201527f75746f722e000000000000000000000000000000000000000000000000000000602082015250565b6000612a20602583612438565b9150612a2b826129c4565b604082019050919050565b60006020820190508181036000830152612a4f81612a13565b9050919050565b7f52657461696c657220776974682074686973206164647265737320616c72656160008201527f6479206578697374732100000000000000000000000000000000000000000000602082015250565b6000612ab2602a83612438565b9150612abd82612a56565b604082019050919050565b60006020820190508181036000830152612ae181612aa5565b9050919050565b7f4e6f7420612072657461696c65722e0000000000000000000000000000000000600082015250565b6000612b1e600f83612438565b9150612b2982612ae8565b602082019050919050565b60006020820190508181036000830152612b4d81612b11565b9050919050565b7f4e6f742061206469737472696275746f722e0000000000000000000000000000600082015250565b6000612b8a601283612438565b9150612b9582612b54565b602082019050919050565b60006020820190508181036000830152612bb981612b7d565b9050919050565b7f50726f647563657220776974682074686973206164647265737320616c72656160008201527f6479206578697374732100000000000000000000000000000000000000000000602082015250565b6000612c1c602a83612438565b9150612c2782612bc0565b604082019050919050565b60006020820190508181036000830152612c4b81612c0f565b905091905056fea26469706673582212205b9081aa53d973ab6e750dc1aeb416da65680d465b8a55dbb305a2f82be6bc0164736f6c63430008110033",
  "linkReferences": {},
  "deployedLinkReferences": {}
}